:1000000036C1000050C100004EC100004CC10000CC
:100010004AC1000048C1000046C1000044C10000C0
:1000200042C1000040C100003EC10000ACC300005E
:100030003AC1000038C1000036C1000034C10000E0
:1000400032C1000030C100002EC100002CC10000F0
:100050002AC1000028C1000026C100000C94260916
:1000600022C1000020C100001EC100001CC1000010
:100070001AC10000FC28FE8440CB9A870DBE573C75
:10008000B670098807972D2BE33834B66CEDB0F7BE
:10009000E59CF6C22E841BE8B45178431F284B7CA4
:1000A0002D53AFFC47701B596F7443C4F34718536B
:1000B0001AA2A171C7950E315521D3B51EE90CBA0C
:1000C000ECB889193EB3AF75819D53B94157F46DB2
:1000D0003925297C87D9B498457DA7269C653B8521
:1000E0006889D73BBDFF1467F22BF02A4154F0FD1D
:1000F0002C667CF8C08F331303F1D3C10B89D91B55
:1001000062CD51B780B8AF3A10C18A5BE88A56F029
:100110008CAAFA35E942C4D855C338CC2B535C6954
:1001200052D5C87302387C73B641E7FF05D82B79E6
:100130009AE234608FA3321F097862BC80E30FBD5E
:1001400065200813C1E2EE532D867EA75AC5D37DE4
:1001500098BE31481FFBDAAFA2A86A89D6BFF2D396
:10016000322A9AE4CF17B7B8F4E13308248BC4439A
:10017000A5E524C22C03500072006F006A006500E0
:100180006300740020005300750072006600610077
:1001900063006500200054006F0075006300680074
:1001A00000000C0353006800610077006E0000003F
:1001B0000403090409022200010100C064090400CB
:1001C0000001030000000921110100012285000740
:1001D0000581030A000A1201100100000008EB0368
:1001E0004320010001020001050D0904A101850160
:1001F0000922A1020942150025017501950181021C
:1002000095078101750809519501810205011501C4
:1002100026FF7F7510550F65110930350046200304
:100220009501810246E00109318102C0050D550C9E
:1002300066011047FFFF000027FFFF0000751095C3
:1002400001095681020954257F95017508810285AF
:100250000709559501250AB10285440600FF09C525
:10026000150026FF007508960001B102C000112498
:100270001FBECFEFD2E0DEBFCDBF11E0A0E0B1E006
:10028000E4E8F3E102C005900D92A831B107D9F777
:1002900011E0A8E1B1E001C01D92AA3BB107E1F76E
:1002A000F2D60C94C009ACCEAF92BF92CF92DF923F
:1002B000EF92FF921F93CF93DF93EC017B016A01D2
:1002C000E7D1182F8823A9F5C114D10439F0F6011C
:1002D00020813181E21AF30AC20FD31FAA24BB2462
:1002E00023C08091E80085FD16C08091E8008E77DC
:1002F0008093E80054D4C114D10449F0F601808100
:1003000091818A0D9B1D9183808315E012C0C0D11D
:10031000882351F00DC089918093F1000894E10881
:10032000F1080894A11CB11CE114F104D1F601C03C
:10033000182F812FDF91CF911F91FF90EF90DF90C9
:10034000CF90BF90AF900895209127013091280160
:100350002617370728F4B901582F492F20E03FC04E
:1003600061157105C9F72091E8002E772093E80008
:10037000F3CF80912001882309F447C0853009F428
:1003800040C08091E80083FD3EC08091E80082FD7E
:1003900032C08091E80080FF22C02091F20030E05E
:1003A000E52FF42F2E1B3F0B05C081918093F100A8
:1003B00061507040CF01820F931F6115710519F0D4
:1003C0008830910590F321E08830910509F020E014
:1003D0008091E8008E778093E8005E2F4F2F6115A3
:1003E000710539F6222329F606C080912001882361
:1003F00061F0853061F08091E80082FFF6CF80E007
:10040000089583E0089581E0089582E0089583E0EF
:1004100008956115710529F42091E8002B77209348
:10042000E800382F292F24C0809120018823A1F1D2
:10043000853071F18091E80083FD2CC08091E80047
:1004400082FFF2CFE32FF22F08C08091F100819359
:100450003E2F2F2F6150704031F03E2F2F2F809173
:10046000F200882391F78091E8008B778093E80071
:1004700061157105C9F606C080912001882361F0DD
:10048000853061F08091E80080FFF6CF80E008952C
:1004900083E0089581E0089582E0089583E008955F
:1004A00020912701309128012617370728F4B90138
:1004B000582F492F20E040C061157105C9F72091E0
:1004C000E8002E772093E800F3CF80912001882365
:1004D00009F448C0853009F441C08091E80083FDEB
:1004E0003FC08091E80082FD33C08091E80080FF2A
:1004F00023C02091F20030E0E52FF42F2E1B3F0B9C
:1005000006C084918093F100319661507040C9011A
:100510008E0F9F1F6115710519F08830910588F3C2
:1005200021E08830910509F020E08091E8008E7785
:100530008093E8005E2F4F2F6115710531F622235D
:1005400021F606C080912001882361F0853061F09A
:100550008091E80082FFF6CF80E0089583E008955F
:1005600081E0089582E0089583E00895982F2AC0DD
:100570009093E900981739F07091EC002091ED000C
:100580005091F00003C0242F762F50E021FF19C0B6
:100590003091EB003E7F3093EB003091ED003D7FDA
:1005A0003093ED003091EB0031603093EB007093AD
:1005B000EC002093ED005093F0002091EE0027FF17
:1005C00008C09F5F9530A0F28F708093E90081E0B2
:1005D000089580E008950F931F93CF93DF93162F14
:1005E000EC0100E02AC09881992329F16B81E9810F
:1005F000FA812C81892F8F70853018F56295660FEE
:10060000660F607C991F9927991F692B223010F083
:1006100096E001C092E028E030E040E003C04F5F88
:10062000220F331F2E173F07D0F34295407F492BEF
:100630009DDF882331F00F5F25960117A1F681E039
:1006400001C080E0DF91CF911F910F9108958091BB
:10065000210187FF13C004C0809120018823B9F0D5
:100660008091E80082FFF8CF8091E8008B7780933B
:10067000E800089580912001882349F08091E800E6
:1006800080FFF8CF8091E8008E778093E80008958E
:100690008091E4009091E50045E601C0C9012091F8
:1006A000EC0020FF23C02091E80020FD15C0209120
:1006B0002001222399F0253099F02091EB0025FDAF
:1006C00011C02091E4003091E5002817390739F373
:1006D000415021F784E0089580E0089582E0089574
:1006E00083E0089581E0089580E008952091E80076
:1006F00022FFDDCFF9CF41D043D08091D8008F7752
:100700008093D8008091D80080688093D800809131
:10071000D8008F7D8093D80084E089BD86E089BDB4
:1007200009B400FEFDCF1092200110921C0110921E
:100730001E0110921D0180E060E042E017DF809111
:10074000E1008E7F8093E1008091E20081608093E0
:10075000E2008091E20088608093E2008091E000F6
:100760008E7F8093E0000895E3E6F0E080818E7F45
:10077000808381E080931F01BECF1092E200089534
:100780001092E10008951F920F920FB60F9211245C
:100790002F933F934F935F936F937F938F939F9389
:1007A000AF93BF93EF93FF938091E10082FF0AC064
:1007B0008091E20082FF06C08091E1008B7F8093F0
:1007C000E100AFD48091E10080FF17C08091E2008A
:1007D00080FF13C08091E2008E7F8093E2008091C1
:1007E000E20080618093E2008091D8008062809373
:1007F000D80019BC1092200187D48091E10084FFB9
:100800002DC08091E20084FF29C084E089BD86E08C
:1008100089BD09B400FEFDCF8091D8008F7D809303
:10082000D8008091E1008F7E8093E1008091E2000A
:100830008F7E8093E2008091E20081608093E200ED
:1008400080911C01882321F48091E30087FF02C07E
:1008500084E001C081E08093200155D48091E100C3
:1008600083FF22C08091E20083FF1EC08091E100DF
:10087000877F8093E10082E08093200110921C0129
:100880008091E1008E7F8093E1008091E2008E7F75
:100890008093E2008091E20080618093E20080E03A
:1008A00060E042E063DE7AD1FF91EF91BF91AF91BA
:1008B0009F918F917F916F915F914F913F912F9178
:1008C0000F900FBE0F901F9018950F931F93CF930B
:1008D000DF93CDB7DEB7AC970FB6F894DEBF0FBE8F
:1008E000CDBF80E0E1E2F1E09091F10091938F5F64
:1008F0008830D1F713D48091E80083FF36C180910E
:10090000210120912201253009F484C0263040F4D1
:100910002130A1F1213070F0233009F026C12EC022
:10092000283009F4F4C0293009F403C1263009F055
:100930001CC194C0803821F0823809F016C108C06B
:1009400080911D0190911E01992371F082600CC06D
:10095000809125018F708093E9009091EB0081E0F8
:1009600095FF80E01092E9009091E800977F9093C6
:10097000E8008093F1001092F100D4C0882319F0B0
:10098000823009F0F2C090E08F719070009729F0EA
:100990008230910509F0E9C00BC0809123018130BC
:1009A00009F0E3C0233009F080E080931E012CC0E1
:1009B00080912301882341F5209125012F7009F4AE
:1009C000D4C02093E9008091EB0080FF1DC080918E
:1009D0002201833021F48091EB00806213C080916A
:1009E000EB0080618093EB0081E090E002C0880F13
:1009F000991F2A95E2F78093EA001092EA0080910D
:100A0000EB0088608093EB001092E9008091E80091
:100A1000877F8BC0882309F0A8C0109123011F771E
:100A20000FB7F8948091E800877F8093E8000FDE8D
:100A30008091E80080FFFCCF8091E3008078812BDB
:100A40008093E30080688093E300112311F083E03A
:100A500001C082E0809320010FBF87C080588230A0
:100A600008F083C0809123019091240123E08C3D04
:100A70009207A9F583E08C838AE28B835FB7F894B1
:100A8000DE01139680E090E04EE061E2E42FF0E0BA
:100A900060935700E49180FF03C0E295EF704F5FD1
:100AA000EF702E2F30E0EA3018F0295C3F4F02C083
:100AB000205D3F4F13963C932E931297019612960A
:100AC0008431910519F75FBF8091E800877F80939B
:100AD000E800CE0103966AE270E036DC12C0609155
:100AE0002501AE014F5F5F4FF1D3BC01009709F4C0
:100AF0003CC08091E800877F8093E80089819A81DB
:100B0000CFDC8091E8008B778093E8002EC080389E
:100B100061F58091E800877F8093E80080911C0157
:100B20008093F1008091E8008E778093E8008FDD5C
:100B30001CC08823D1F4909123019230B0F48091AD
:100B4000E800877F8093E80090931C0180DD80910E
:100B50001C01882321F48091E30087FF02C084E018
:100B600001C081E080932001D0D28091E80083FF12
:100B70000AC08091EB0080628093EB008091E800D6
:100B8000877F8093E800AC960FB6F894DEBF0FBE67
:100B9000CDBFDF91CF911F910F9108950895CF930D
:100BA000809120018823A9F08091E9008F709091B5
:100BB000EC0090FF02C0C0E801C0C0E0C82B10925A
:100BC000E9008091E80083FF01C07FDECF70C09311
:100BD000E900CF9108956F927F928F929F92AF928A
:100BE000BF92CF92DF92EF92FF920F931F93CF931A
:100BF000DF9300D00F92CDB7DEB77C016DB67EB625
:100C00008091E80083FF03C1F701808190E020918B
:100C10002501309126012817390709F0F8C0809185
:100C20002201833009F49AC0843030F4813071F0AD
:100C3000823009F0ECC0CFC08A3009F4B4C08B30E8
:100C400009F49DC0893009F0E2C04BC080912101B8
:100C5000813A09F0DCC09DB68EB61B821A82809163
:100C60002301009124018983F70140858DB79EB748
:100C7000841B91090FB6F8949EBF0FBE8DBFCDB6F1
:100C8000DEB60894C11CD11CBC2CAD2CC60160E0A2
:100C900070E050E06ED3402F4150C701BE016F5F3E
:100CA0007F4F96018E010E5F1F4F47D2F70186815D
:100CB0009781009721F04085B60150E051D3109202
:100CC000E9008091E800877F8093E8006A817B815A
:100CD0008B2D9A2D39DB8091E8008B778093E8008B
:100CE0003AC080912101813209F091C09DB68EB643
:100CF0000091270110912801C0902301D090240178
:100D00008DB79EB7801B910B0FB6F8949EBF0FBE98
:100D10008DBFADB6BEB60894A11CB11C8091E80091
:100D2000877F8093E800C501B80173DB8091E800FC
:100D30008E778093E80081E090E0CC2011F480E091
:100D400090E04D2D41509501280F391F081B190BBC
:100D5000C7016C2D7AD29DBE8EBE59C080912101F3
:100D6000813A09F054C08091E800877F8093E800C1
:100D70008091E80080FFFCCFF701818540C0809121
:100D80002101813209F043C08091E800877F809380
:100D9000E8005DDC9091230181E0992309F480E073
:100DA000F701818734C080912101813281F58091E2
:100DB000E800877F8093E8004ADC809123019091CE
:100DC0002401807036E0969587953A95E1F7F70112
:100DD000958784871CC080912101813AC1F480915C
:100DE000E800877F8093E8008091E80080FFFCCFD7
:100DF000F701848595859695879596958795809337
:100E0000F1008091E8008E778093E80020DC0FB637
:100E1000F8947EBE0FBE6DBE0F900F900F90DF91C5
:100E2000CF911F910F91FF90EF90DF90CF90BF90E7
:100E3000AF909F908F907F906F900895CF93DF93A6
:100E4000FC010996DC0187E0ED0119928A95E9F72A
:100E500081E0818784EF91E09587848783E08483B4
:100E6000CF01019661E0B7DBDF91CF9108954F92FA
:100E70005F926F927F928F929F92AF92BF92CF922A
:100E8000DF92EF92FF920F931F93CF93DF9300D0E7
:100E90000F92CDB7DEB77C014DB65EB680912001D2
:100EA000843009F091C08091E4009091E500F70151
:100EB000228533852817390709F486C081818F7010
:100EC0008093E9008091E80085FF7EC07DB66EB614
:100ED00040858DB79EB7841B91090FB6F8949EBFCD
:100EE0000FBE8DBF0DB71EB70F5F1F4F19821B823C
:100EF0001A82B02EA12EC80160E070E050E039D215
:100F0000C701BE016F5F7F4F40E098018E010E5F09
:100F10001F4F13D1182FF70184859585009759F03D
:100F200081E090E0268537852115310511F080E0BC
:100F300090E04C0102C088249924F701C680D78034
:100F4000C114D10491F04A815B818B2D9A2DB60199
:100F5000FAD101E0009709F400E0F7014085C601ED
:100F60006B2D7A2D50E0FCD101C000E08A819B817D
:100F7000009709F1112329F4002319F48114910435
:100F8000D1F0F701848595859787868781818F7059
:100F90008093E9008981882311F08093F1006A81B0
:100FA0007B818B2D9A2D40E050E07ED98091E80026
:100FB0008E778093E8008091E4009091E500F7013E
:100FC000938782877DBE6EBE0FB6F8945EBE0FBE5D
:100FD0004DBE0F900F900F90DF91CF911F910F9109
:100FE000FF90EF90DF90CF90BF90AF909F908F9049
:100FF0007F906F905F904F900895E091B701F091CE
:10100000B8018191F093B801E093B70191E0E53B1D
:10101000F90731F425E331E03093B8012093B701AB
:101020002FB7F8949091B90191509093B9012FBFC7
:101030000895CF93DF9384B7877F84BF28E10FB6ED
:10104000F89420936000109260000FBE80E190E061
:101050009093CD008093CC0086E08093CA0082E01C
:101060008093C800C9ECD0E02883539A5A9A8AB179
:1010700080638AB98BB180638BB976DB88E988831A
:10108000DF91CF910895D5DF2FB7F89485E391E0F4
:101090009093B6018093B5019093B8018093B70106
:1010A0002FBF789488E091E0E2DE79DD80911A012B
:1010B00090911B01009781F080911A0190911B0182
:1010C000019790931B0180931A0180911A019091CE
:1010D0001B01009709F45D9A809118019091190104
:1010E000009701F380911801909119010197909355
:1010F00019018093180180911801909119010097AE
:1011000089F65C9ACFCF0895089588E091E096DE45
:10111000E2EEF0E0808184608083089588E091E0D1
:101120005ACD8091160190911701009729F00197EF
:10113000909317018093160108958F929F92AF921A
:10114000BF92CF92DF92EF92FF920F931F93CF93B4
:10115000DF93E9015801209709F469C04230B1F4E6
:10116000FB018081843461F48993E4E7F0E080E05E
:1011700091E0019009920197E1F781E091E044C08C
:1011800088838AE0898382E090E03EC09FB7F8942C
:101190008091B9019FBF893008F43BC02EDF982EA3
:1011A0002CDF882E2ADFC82E28DF382F20E0DD2410
:1011B000C22AD32A22DFE82E20DF382F20E0FF24A6
:1011C000E22AF32A1ADF082F18DF382F20E010E078
:1011D000022B132B12DF91E09883992011F09FEFDF
:1011E00001C090E099838A8218870F83DC82CB82CA
:1011F000FE82ED8289875D9880ED97E090931B01D8
:1012000080931A018AE090E0F5019183808381E068
:101210000FC081E0888319821A8218861F821C827F
:101220001B821E821D821986F8011182108280E0C5
:10123000DF91CF911F910F91FF90EF90DF90CF90B2
:10124000BF90AF909F908F90089508951F920F9236
:101250000FB60F9211242F938F939F93EF93FF93C9
:101260008091CE0090912001943031F52FB7F89401
:101270009091B9012FBF9038F9F0E091B501F0914C
:10128000B6018083E091B501F091B601CF010196DE
:101290009093B6018093B50121E0853B920721F43C
:1012A00085E391E0928381839FB7F8948091B9019F
:1012B0008F5F8093B9019FBFFF91EF919F918F91B5
:1012C0002F910F900FBE0F901F901895933089F0BB
:1012D000943028F4913049F1923061F505C0913293
:1012E000D1F0923239F51CC082E290E0E4EBF1E0FB
:1012F00025C0813041F0813018F08230D9F406C029
:10130000E0EBF1E005C0E2EAF1E002C0E4E7F1E081
:10131000849190E013C089E090E0E6ECF1E00EC02B
:1013200085E890E0E8EEF1E009C082E190E0E6EDCA
:10133000F1E004C080E090E0E0E0F0E0DA01119636
:10134000FC93EE930895FB01DC0104C08D910190A4
:10135000801921F441505040C8F7881B990B08951B
:10136000FB01DC0102C001900D9241505040D8F7C2
:101370000895DC0101C06D9341505040E0F708959D
:04138000F894FFCF0F
:10138400A12000000000020000810A0000012901E0
:081394000A0000000000000047
:00000001FF
